:030000000201C238
:0C01C200787FE4F6D8FD75817302020915
:100425000A5A057D46543C94845D04140A64017996
:0B04350042503890805900100158011F
:10044100D2AFD2A8D288758901758C4C758AD0D269
:06045100A9D28C0202D4C6
:1002D400E4F56EF56FF570F571F572F573D3E56FAE
:1002E400940FE56E9427503F1200A17580FF7F0A9A
:1002F4007E001203E00573E57370020572640A451B
:1003040072700D0571E57170020570E4F572F57394
:10031400E571640A457070C5056FE56F7002056E7E
:08032400E4F570F57180B622CA
:0B03D500745A2FF8E6F5807F017E00CF
:1003E000D3EF9400EE940040147D6E7C00ED1D7000
:0D03F000011CED4C70F7EF1F70E61E80E35E
:0103FD0022DD
:0C00A100AB73AA72AD71AC70AF6FAE6EA5
:0C00AD008E308F318C328D338A348B35CD
:1000B9007C037DE812032C8E368F37AE30AF317C4E
:1000C900007D6412032C7C007D0A12032C8C388D70
:1000D90039AE30AF317C007D0A12032C7C007D0AD9
:1000E90012032C8C3A8D3BAE30AF317C007D0A1265
:1000F900032C8C3C8D3DE5334532700DE535453497
:100109007007AF31AE3002024EE5354534700BADA4
:1001190033AC32AF31AE30020133AB35AA34AD3333
:09012900AC32AF31AE3012000E11
:0101320022AA
:04024E00AB07AA064A
:100252007C037DE812032C8F828E837C007D64AF49
:1002620003AE0212032C7C007D0A12032C8C528DE9
:10027200537C007D0AAF03AE0212032C7C007D0A80
:1002820012032C8C548D55AE02AF037C007D0A12F2
:10029200032C8C568D57E58245836009AF82AE836D
:1002A20012046B8006E55345526010AF53AE5212F2
:1002B2000473AF55AE5412047B800FE5554554606C
:1002C20009AF55AE5412047B8000AF57AE561204EC
:0102D20083A8
:0102D3002208
:080133008C4A8D4BAB07AA06B4
:10013B007C037DE812032C8F828E837C007D64AF61
:10014B0003AE0212032C7C007D0A12032C8C4C8D07
:10015B004D7C007D0AAF03AE0212032C7C007D0A9E
:10016B0012032C8C4E8D4F7C007D0AAF03AE021216
:10017B00032C8C508D51E58245836007AF03AE0293
:10018B0002024EE54D454C6010AF4DAE4C12046B68
:10019B00AF4FAE4E120473800FE54F454E6009AF63
:1001AB004FAE4E1204738000AF51AE50120461AFCC
:0601BB004BAE4A12048362
:0101C100221B
:0C000E008E3E8F3F8C408D418A428B4318
:10001A007C037DE812032CAB07AA06AE3EAF3F7CF9
:10002A00007D6412032C7C007D0A12032C8C448D03
:10003A0045AE3EAF3F7C007D0A12032C7C007D0A50
:10004A0012032C8C468D47AE3EAF3F7C007D0A12D0
:10005A00032C8C488D49EB4A6007AF3FAE3E020243
:10006A004EE5454544600BAD41AC40AF3FAE3E0264
:10007A000133E54745466009AF47AE4612046B8037
:10008A0000AF49AE48120457AF41AE4012047BAFED
:06009A0043AE4212048394
:0100A000223D
:08046B00C2A31203D5D2A322A3
:08047300C2A41203D5D2A42299
:0A045700C2A474641203D7D2A422D9
:08047B00C2A51203D5D2A5228F
:0A046100C2A574641203D7D2A522CD
:08048300C2A61203D5D2A62285
:0300030002038174
:10038100C0E0C0F0C083C082C0D075D000C000C042
:1003910001C002C003C004C005C006C007755801F2
:1003A100E558B401141200A120B3F5E55870047F9B
:1003B1000180027F008F5880E7D007D006D005D09A
:1003C10004D003D002D001D000D0D0D082D083D0CD
:0403D100F0D0E03256
:03000B000203FEEF
:1003FE00C0E0C0D0758C4C758AD00559E559B40A49
:10040E0011755900E59025E020970504F5908002BE
:07041E00F590D0D0D0E032D0
:1001CE00020441E493A3F8E493A34003F68001F202
:1001DE0008DFF48029E493A3F85407240CC8C33332
:1001EE00C4540F4420C8834004F456800146F6DF01
:1001FE00E4800B0102040810204080900425E47E68
:10020E00019360BCA3FF543F30E509541FFEE493F5
:10021E00A360010ECF54C025E060A840B8E493A3BC
:10022E00FAE493A3F8E493A3C8C582C8CAC583CAE7
:10023E00F0A3C8C582C8CAC583CADFE9DEE780BE9F
:0104400000BB
:10032C00BC000BBE0029EF8DF084FFADF022E4CCB5
:10033C00F875F008EF2FFFEE33FEEC33FCEE9DEC7E
:10034C00984005FCEE9DFE0FD5F0E9E4CEFD22EDC4
:10035C00F8F5F0EE8420D21CFEADF075F008EF2F0E
:10036C00FFED33FD4007985006D5F0F222C398FDFF
:05037C000FD5F0EA229C
:00000001FF
